{
  "_format": "hh-sol-artifact-1",
  "contractName": "WolfManToken",
  "sourceName": "contracts/WolfManToken.sol",
  "abi": [
    {
      "inputs": [],
      "stateMutability": "nonpayable",
      "type": "constructor"
    },
    {
      "anonymous": false,
      "inputs": [
        {
          "indexed": true,
          "internalType": "address",
          "name": "owner",
          "type": "address"
        },
        {
          "indexed": true,
          "internalType": "address",
          "name": "spender",
          "type": "address"
        },
        {
          "indexed": false,
          "internalType": "uint256",
          "name": "value",
          "type": "uint256"
        }
      ],
      "name": "Approval",
      "type": "event"
    },
    {
      "anonymous": false,
      "inputs": [
        {
          "indexed": true,
          "internalType": "address",
          "name": "previousOwner",
          "type": "address"
        },
        {
          "indexed": true,
          "internalType": "address",
          "name": "newOwner",
          "type": "address"
        }
      ],
      "name": "OwnershipTransferred",
      "type": "event"
    },
    {
      "anonymous": false,
      "inputs": [
        {
          "indexed": true,
          "internalType": "address",
          "name": "from",
          "type": "address"
        },
        {
          "indexed": true,
          "internalType": "address",
          "name": "to",
          "type": "address"
        },
        {
          "indexed": false,
          "internalType": "uint256",
          "name": "value",
          "type": "uint256"
        }
      ],
      "name": "Transfer",
      "type": "event"
    },
    {
      "anonymous": false,
      "inputs": [
        {
          "indexed": true,
          "internalType": "address",
          "name": "buyer",
          "type": "address"
        },
        {
          "indexed": false,
          "internalType": "uint256",
          "name": "amount",
          "type": "uint256"
        }
      ],
      "name": "newTokenBought",
      "type": "event"
    },
    {
      "stateMutability": "payable",
      "type": "fallback"
    },
    {
      "inputs": [
        {
          "internalType": "address",
          "name": "",
          "type": "address"
        }
      ],
      "name": "LostFundRepaid",
      "outputs": [
        {
          "internalType": "bool",
          "name": "",
          "type": "bool"
        }
      ],
      "stateMutability": "view",
      "type": "function"
    },
    {
      "inputs": [
        {
          "internalType": "address",
          "name": "owner",
          "type": "address"
        },
        {
          "internalType": "address",
          "name": "spender",
          "type": "address"
        }
      ],
      "name": "allowance",
      "outputs": [
        {
          "internalType": "uint256",
          "name": "",
          "type": "uint256"
        }
      ],
      "stateMutability": "view",
      "type": "function"
    },
    {
      "inputs": [
        {
          "internalType": "address",
          "name": "spender",
          "type": "address"
        },
        {
          "internalType": "uint256",
          "name": "amount",
          "type": "uint256"
        }
      ],
      "name": "approve",
      "outputs": [
        {
          "internalType": "bool",
          "name": "",
          "type": "bool"
        }
      ],
      "stateMutability": "nonpayable",
      "type": "function"
    },
    {
      "inputs": [
        {
          "internalType": "address",
          "name": "account",
          "type": "address"
        }
      ],
      "name": "balanceOf",
      "outputs": [
        {
          "internalType": "uint256",
          "name": "",
          "type": "uint256"
        }
      ],
      "stateMutability": "view",
      "type": "function"
    },
    {
      "inputs": [
        {
          "internalType": "uint256",
          "name": "amount",
          "type": "uint256"
        }
      ],
      "name": "burn",
      "outputs": [],
      "stateMutability": "nonpayable",
      "type": "function"
    },
    {
      "inputs": [
        {
          "internalType": "address",
          "name": "account",
          "type": "address"
        },
        {
          "internalType": "uint256",
          "name": "amount",
          "type": "uint256"
        }
      ],
      "name": "burnFrom",
      "outputs": [],
      "stateMutability": "nonpayable",
      "type": "function"
    },
    {
      "inputs": [
        {
          "internalType": "uint256",
          "name": "_amount",
          "type": "uint256"
        }
      ],
      "name": "buyWolfManToken",
      "outputs": [],
      "stateMutability": "payable",
      "type": "function"
    },
    {
      "inputs": [],
      "name": "decimals",
      "outputs": [
        {
          "internalType": "uint8",
          "name": "",
          "type": "uint8"
        }
      ],
      "stateMutability": "view",
      "type": "function"
    },
    {
      "inputs": [
        {
          "internalType": "address",
          "name": "spender",
          "type": "address"
        },
        {
          "internalType": "uint256",
          "name": "subtractedValue",
          "type": "uint256"
        }
      ],
      "name": "decreaseAllowance",
      "outputs": [
        {
          "internalType": "bool",
          "name": "",
          "type": "bool"
        }
      ],
      "stateMutability": "nonpayable",
      "type": "function"
    },
    {
      "inputs": [
        {
          "internalType": "address",
          "name": "spender",
          "type": "address"
        },
        {
          "internalType": "uint256",
          "name": "addedValue",
          "type": "uint256"
        }
      ],
      "name": "increaseAllowance",
      "outputs": [
        {
          "internalType": "bool",
          "name": "",
          "type": "bool"
        }
      ],
      "stateMutability": "nonpayable",
      "type": "function"
    },
    {
      "inputs": [
        {
          "internalType": "address",
          "name": "to",
          "type": "address"
        },
        {
          "internalType": "uint256",
          "name": "amount",
          "type": "uint256"
        }
      ],
      "name": "mint",
      "outputs": [],
      "stateMutability": "nonpayable",
      "type": "function"
    },
    {
      "inputs": [],
      "name": "name",
      "outputs": [
        {
          "internalType": "string",
          "name": "",
          "type": "string"
        }
      ],
      "stateMutability": "view",
      "type": "function"
    },
    {
      "inputs": [],
      "name": "owner",
      "outputs": [
        {
          "internalType": "address",
          "name": "",
          "type": "address"
        }
      ],
      "stateMutability": "view",
      "type": "function"
    },
    {
      "inputs": [],
      "name": "price",
      "outputs": [
        {
          "internalType": "uint256",
          "name": "",
          "type": "uint256"
        }
      ],
      "stateMutability": "view",
      "type": "function"
    },
    {
      "inputs": [],
      "name": "refund",
      "outputs": [],
      "stateMutability": "nonpayable",
      "type": "function"
    },
    {
      "inputs": [],
      "name": "renounceOwnership",
      "outputs": [],
      "stateMutability": "nonpayable",
      "type": "function"
    },
    {
      "inputs": [
        {
          "internalType": "address",
          "name": "_to",
          "type": "address"
        },
        {
          "internalType": "uint256",
          "name": "_amount",
          "type": "uint256"
        }
      ],
      "name": "sendWolfManToken",
      "outputs": [],
      "stateMutability": "nonpayable",
      "type": "function"
    },
    {
      "inputs": [],
      "name": "symbol",
      "outputs": [
        {
          "internalType": "string",
          "name": "",
          "type": "string"
        }
      ],
      "stateMutability": "view",
      "type": "function"
    },
    {
      "inputs": [],
      "name": "totalDepositedEther",
      "outputs": [
        {
          "internalType": "uint256",
          "name": "",
          "type": "uint256"
        }
      ],
      "stateMutability": "view",
      "type": "function"
    },
    {
      "inputs": [],
      "name": "totalSupply",
      "outputs": [
        {
          "internalType": "uint256",
          "name": "",
          "type": "uint256"
        }
      ],
      "stateMutability": "view",
      "type": "function"
    },
    {
      "inputs": [
        {
          "internalType": "address",
          "name": "to",
          "type": "address"
        },
        {
          "internalType": "uint256",
          "name": "amount",
          "type": "uint256"
        }
      ],
      "name": "transfer",
      "outputs": [
        {
          "internalType": "bool",
          "name": "",
          "type": "bool"
        }
      ],
      "stateMutability": "nonpayable",
      "type": "function"
    },
    {
      "inputs": [
        {
          "internalType": "address",
          "name": "from",
          "type": "address"
        },
        {
          "internalType": "address",
          "name": "to",
          "type": "address"
        },
        {
          "internalType": "uint256",
          "name": "amount",
          "type": "uint256"
        }
      ],
      "name": "transferFrom",
      "outputs": [
        {
          "internalType": "bool",
          "name": "",
          "type": "bool"
        }
      ],
      "stateMutability": "nonpayable",
      "type": "function"
    },
    {
      "inputs": [
        {
          "internalType": "address",
          "name": "newOwner",
          "type": "address"
        }
      ],
      "name": "transferOwnership",
      "outputs": [],
      "stateMutability": "nonpayable",
      "type": "function"
    },
    {
      "inputs": [
        {
          "internalType": "address payable",
          "name": "_to",
          "type": "address"
        }
      ],
      "name": "withdrawFunds",
      "outputs": [],
      "stateMutability": "nonpayable",
      "type": "function"
    },
    {
      "inputs": [
        {
          "internalType": "address",
          "name": "",
          "type": "address"
        }
      ],
      "name": "wronglyPaidAmount",
      "outputs": [
        {
          "internalType": "uint256",
          "name": "",
          "type": "uint256"
        }
      ],
      "stateMutability": "view",
      "type": "function"
    },
    {
      "stateMutability": "payable",
      "type": "receive"
    }
  ],
  "bytecode": "0x608060405266038d7ea4c680006006553480156200001c57600080fd5b506040518060400160405280600c81526020017f576f6c664d616e546f6b656e00000000000000000000000000000000000000008152506040518060400160405280600781526020017f574f4c464d616e0000000000000000000000000000000000000000000000000081525081600390816200009a9190620005dc565b508060049081620000ac9190620005dc565b505050620000cf620000c36200011460201b60201c565b6200011c60201b60201c565b6200010e33620000e4620001e260201b60201c565b600a620000f2919062000853565b62989680620001029190620008a4565b620001eb60201b60201c565b620009db565b600033905090565b6000600560009054906101000a900473ffffffffffffffffffffffffffffffffffffffff16905081600560006101000a81548173ffffffffffffffffffffffffffffffffffffffff021916908373ffffffffffffffffffffffffffffffffffffffff1602179055508173ffffffffffffffffffffffffffffffffffffffff168173ffffffffffffffffffffffffffffffffffffffff167f8be0079c531659141344cd1fd0a4f28419497f9722a3daafe3b4186f6b6457e060405160405180910390a35050565b60006012905090565b600073ffffffffffffffffffffffffffffffffffffffff168273ffffffffffffffffffffffffffffffffffffffff16036200025d576040517f08c379a0000000000000000000000000000000000000000000000000000000008152600401620002549062000950565b60405180910390fd5b62000271600083836200035860201b60201c565b806002600082825462000285919062000972565b92505081905550806000808473ffffffffffffffffffffffffffffffffffffffff1673ffffffffffffffffffffffffffffffffffffffff168152602001908152602001600020600082825401925050819055508173ffffffffffffffffffffffffffffffffffffffff16600073ffffffffffffffffffffffffffffffffffffffff167fddf252ad1be2c89b69c2b068fc378daa952ba7f163c4a11628f55a4df523b3ef83604051620003389190620009be565b60405180910390a362000354600083836200035d60201b60201c565b5050565b505050565b505050565b600081519050919050565b7f4e487b7100000000000000000000000000000000000000000000000000000000600052604160045260246000fd5b7f4e487b7100000000000000000000000000000000000000000000000000000000600052602260045260246000fd5b60006002820490506001821680620003e457607f821691505b602082108103620003fa57620003f96200039c565b5b50919050565b60008190508160005260206000209050919050565b60006020601f8301049050919050565b600082821b905092915050565b600060088302620004647fffffffffffffffffffffffffffffffffffffffffffffffffffffffffffffffff8262000425565b62000470868362000425565b95508019841693508086168417925050509392505050565b6000819050919050565b6000819050919050565b6000620004bd620004b7620004b18462000488565b62000492565b62000488565b9050919050565b6000819050919050565b620004d9836200049c565b620004f1620004e882620004c4565b84845462000432565b825550505050565b600090565b62000508620004f9565b62000515818484620004ce565b505050565b5b818110156200053d5762000531600082620004fe565b6001810190506200051b565b5050565b601f8211156200058c57620005568162000400565b620005618462000415565b8101602085101562000571578190505b62000589620005808562000415565b8301826200051a565b50505b505050565b600082821c905092915050565b6000620005b16000198460080262000591565b1980831691505092915050565b6000620005cc83836200059e565b9150826002028217905092915050565b620005e78262000362565b67ffffffffffffffff8111156200060357620006026200036d565b5b6200060f8254620003cb565b6200061c82828562000541565b600060209050601f8311600181146200065457600084156200063f578287015190505b6200064b8582620005be565b865550620006bb565b601f198416620006648662000400565b60005b828110156200068e5784890151825560018201915060208501945060208101905062000667565b86831015620006ae5784890151620006aa601f8916826200059e565b8355505b6001600288020188555050505b505050505050565b7f4e487b7100000000000000000000000000000000000000000000000000000000600052601160045260246000fd5b60008160011c9050919050565b6000808291508390505b60018511156200075157808604811115620007295762000728620006c3565b5b6001851615620007395780820291505b80810290506200074985620006f2565b945062000709565b94509492505050565b6000826200076c57600190506200083f565b816200077c57600090506200083f565b8160018114620007955760028114620007a057620007d6565b60019150506200083f565b60ff841115620007b557620007b4620006c3565b5b8360020a915084821115620007cf57620007ce620006c3565b5b506200083f565b5060208310610133831016604e8410600b8410161715620008105782820a9050838111156200080a5762000809620006c3565b5b6200083f565b6200081f8484846001620006ff565b92509050818404811115620008395762000838620006c3565b5b81810290505b9392505050565b600060ff82169050919050565b6000620008608262000488565b91506200086d8362000846565b92506200089c7fffffffffffffffffffffffffffffffffffffffffffffffffffffffffffffffff84846200075a565b905092915050565b6000620008b18262000488565b9150620008be8362000488565b9250828202620008ce8162000488565b91508282048414831517620008e857620008e7620006c3565b5b5092915050565b600082825260208201905092915050565b7f45524332303a206d696e7420746f20746865207a65726f206164647265737300600082015250565b600062000938601f83620008ef565b9150620009458262000900565b602082019050919050565b600060208201905081810360008301526200096b8162000929565b9050919050565b60006200097f8262000488565b91506200098c8362000488565b9250828201905080821115620009a757620009a6620006c3565b5b92915050565b620009b88162000488565b82525050565b6000602082019050620009d56000830184620009ad565b92915050565b6125a080620009eb6000396000f3fe60806040526004361061016a5760003560e01c806368742da6116100d15780639b4d51f41161008a578063a9059cbb11610064578063a9059cbb146106a0578063dd62ed3e146106dd578063f2fde38b1461071a578063f95ed3e6146107435761021e565b80639b4d51f41461060d578063a035b1fe14610638578063a457c2d7146106635761021e565b806368742da61461051157806370a082311461053a578063715018a61461057757806379cc67901461058e5780638da5cb5b146105b757806395d89b41146105e25761021e565b8063313ce56711610123578063313ce56714610403578063395093511461042e57806340c10f191461046b57806342966c6814610494578063590e1ae3146104bd57806365d3210f146104d45761021e565b806305c5d35b146102cd57806306fdde031461030a578063095ea7b31461033557806318160ddd146103725780631fb355cd1461039d57806323b872dd146103c65761021e565b3661021e5734600760003373ffffffffffffffffffffffffffffffffffffffff1673ffffffffffffffffffffffffffffffffffffffff16815260200190815260200160002060008282546101be9190611904565b925050819055506000600860003373ffffffffffffffffffffffffffffffffffffffff1673ffffffffffffffffffffffffffffffffffffffff16815260200190815260200160002060006101000a81548160ff0219169083151502179055005b34600760003373ffffffffffffffffffffffffffffffffffffffff1673ffffffffffffffffffffffffffffffffffffffff168152602001908152602001600020600082825461026d9190611904565b925050819055506000600860003373ffffffffffffffffffffffffffffffffffffffff1673ffffffffffffffffffffffffffffffffffffffff16815260200190815260200160002060006101000a81548160ff0219169083151502179055005b3480156102d957600080fd5b506102f460048036038101906102ef919061199b565b61075f565b60405161030191906119d7565b60405180910390f35b34801561031657600080fd5b5061031f610777565b60405161032c9190611a82565b60405180910390f35b34801561034157600080fd5b5061035c60048036038101906103579190611ad0565b610809565b6040516103699190611b2b565b60405180910390f35b34801561037e57600080fd5b5061038761082c565b60405161039491906119d7565b60405180910390f35b3480156103a957600080fd5b506103c460048036038101906103bf9190611ad0565b610836565b005b3480156103d257600080fd5b506103ed60048036038101906103e89190611b46565b61089b565b6040516103fa9190611b2b565b60405180910390f35b34801561040f57600080fd5b506104186108ca565b6040516104259190611bb5565b60405180910390f35b34801561043a57600080fd5b5061045560048036038101906104509190611ad0565b6108d3565b6040516104629190611b2b565b60405180910390f35b34801561047757600080fd5b50610492600480360381019061048d9190611ad0565b61090a565b005b3480156104a057600080fd5b506104bb60048036038101906104b69190611bd0565b610920565b005b3480156104c957600080fd5b506104d2610934565b005b3480156104e057600080fd5b506104fb60048036038101906104f6919061199b565b610aa6565b6040516105089190611b2b565b60405180910390f35b34801561051d57600080fd5b5061053860048036038101906105339190611c3b565b610ac6565b005b34801561054657600080fd5b50610561600480360381019061055c919061199b565b610b87565b60405161056e91906119d7565b60405180910390f35b34801561058357600080fd5b5061058c610bcf565b005b34801561059a57600080fd5b506105b560048036038101906105b09190611ad0565b610be3565b005b3480156105c357600080fd5b506105cc610c03565b6040516105d99190611c77565b60405180910390f35b3480156105ee57600080fd5b506105f7610c2d565b6040516106049190611a82565b60405180910390f35b34801561061957600080fd5b50610622610cbf565b60405161062f91906119d7565b60405180910390f35b34801561064457600080fd5b5061064d610cc7565b60405161065a91906119d7565b60405180910390f35b34801561066f57600080fd5b5061068a60048036038101906106859190611ad0565b610ccd565b6040516106979190611b2b565b60405180910390f35b3480156106ac57600080fd5b506106c760048036038101906106c29190611ad0565b610d44565b6040516106d49190611b2b565b60405180910390f35b3480156106e957600080fd5b5061070460048036038101906106ff9190611c92565b610d67565b60405161071191906119d7565b60405180910390f35b34801561072657600080fd5b50610741600480360381019061073c919061199b565b610dee565b005b61075d60048036038101906107589190611bd0565b610e71565b005b60076020528060005260406000206000915090505481565b60606003805461078690611d01565b80601f01602080910402602001604051908101604052809291908181526020018280546107b290611d01565b80156107ff5780601f106107d4576101008083540402835291602001916107ff565b820191906000526020600020905b8154815290600101906020018083116107e257829003601f168201915b5050505050905090565b600080610814610f71565b9050610821818585610f79565b600191505092915050565b6000600254905090565b8061084033610b87565b1015610881576040517f08c379a000000000000000000000000000000000000000000000000000000000815260040161087890611da4565b60405180910390fd5b61088c823383610f79565b610897338383611142565b5050565b6000806108a6610f71565b90506108b38582856113b8565b6108be858585611142565b60019150509392505050565b60006012905090565b6000806108de610f71565b90506108ff8185856108f08589610d67565b6108fa9190611904565b610f79565b600191505092915050565b610912611444565b61091c82826114c2565b5050565b61093161092b610f71565b82611618565b50565b670de0b6b3a7640000600760003373ffffffffffffffffffffffffffffffffffffffff1673ffffffffffffffffffffffffffffffffffffffff168152602001908152602001600020541180156109da575060001515600860003373ffffffffffffffffffffffffffffffffffffffff1673ffffffffffffffffffffffffffffffffffffffff16815260200190815260200160002060009054906101000a900460ff161515145b6109e357600080fd5b6001600860003373ffffffffffffffffffffffffffffffffffffffff1673ffffffffffffffffffffffffffffffffffffffff16815260200190815260200160002060006101000a81548160ff0219169083151502179055506000600760003373ffffffffffffffffffffffffffffffffffffffff1673ffffffffffffffffffffffffffffffffffffffff168152602001908152602001600020549050610a9133610a8b610c03565b83610f79565b610aa3610a9c610c03565b3383611142565b50565b60086020528060005260406000206000915054906101000a900460ff1681565b610ace611444565b600073ffffffffffffffffffffffffffffffffffffffff168173ffffffffffffffffffffffffffffffffffffffff1603610b3d576040517f08c379a0000000000000000000000000000000000000000000000000000000008152600401610b3490611e10565b60405180910390fd5b8073ffffffffffffffffffffffffffffffffffffffff166108fc479081150290604051600060405180830381858888f19350505050158015610b83573d6000803e3d6000fd5b5050565b60008060008373ffffffffffffffffffffffffffffffffffffffff1673ffffffffffffffffffffffffffffffffffffffff168152602001908152602001600020549050919050565b610bd7611444565b610be160006117e5565b565b610bf582610bef610f71565b836113b8565b610bff8282611618565b5050565b6000600560009054906101000a900473ffffffffffffffffffffffffffffffffffffffff16905090565b606060048054610c3c90611d01565b80601f0160208091040260200160405190810160405280929190818152602001828054610c6890611d01565b8015610cb55780601f10610c8a57610100808354040283529160200191610cb5565b820191906000526020600020905b815481529060010190602001808311610c9857829003601f168201915b5050505050905090565b600047905090565b60065481565b600080610cd8610f71565b90506000610ce68286610d67565b905083811015610d2b576040517f08c379a0000000000000000000000000000000000000000000000000000000008152600401610d2290611ea2565b60405180910390fd5b610d388286868403610f79565b60019250505092915050565b600080610d4f610f71565b9050610d5c818585611142565b600191505092915050565b6000600160008473ffffffffffffffffffffffffffffffffffffffff1673ffffffffffffffffffffffffffffffffffffffff16815260200190815260200160002060008373ffffffffffffffffffffffffffffffffffffffff1673ffffffffffffffffffffffffffffffffffffffff16815260200190815260200160002054905092915050565b610df6611444565b600073ffffffffffffffffffffffffffffffffffffffff168173ffffffffffffffffffffffffffffffffffffffff1603610e65576040517f08c379a0000000000000000000000000000000000000000000000000000000008152600401610e5c90611f34565b60405180910390fd5b610e6e816117e5565b50565b610e86600654826118ab90919063ffffffff16565b341015610ec8576040517f08c379a0000000000000000000000000000000000000000000000000000000008152600401610ebf90611fc6565b60405180910390fd5b610ef433610ed4610c03565b610eef670de0b6b3a7640000856118ab90919063ffffffff16565b610f79565b610f20610eff610c03565b33610f1b670de0b6b3a7640000856118ab90919063ffffffff16565b611142565b3373ffffffffffffffffffffffffffffffffffffffff167f340e25f582359f328c453eea9c8325fd1842595ec78f46a5717fa08336a69b3b82604051610f6691906119d7565b60405180910390a250565b600033905090565b600073ffffffffffffffffffffffffffffffffffffffff168373ffffffffffffffffffffffffffffffffffffffff1603610fe8576040517f08c379a0000000000000000000000000000000000000000000000000000000008152600401610fdf90612058565b60405180910390fd5b600073ffffffffffffffffffffffffffffffffffffffff168273ffffffffffffffffffffffffffffffffffffffff1603611057576040517f08c379a000000000000000000000000000000000000000000000000000000000815260040161104e906120ea565b60405180910390fd5b80600160008573ffffffffffffffffffffffffffffffffffffffff1673ffffffffffffffffffffffffffffffffffffffff16815260200190815260200160002060008473ffffffffffffffffffffffffffffffffffffffff1673ffffffffffffffffffffffffffffffffffffffff168152602001908152602001600020819055508173ffffffffffffffffffffffffffffffffffffffff168373ffffffffffffffffffffffffffffffffffffffff167f8c5be1e5ebec7d5bd14f71427d1e84f3dd0314c0f7b2291e5b200ac8c7c3b9258360405161113591906119d7565b60405180910390a3505050565b600073ffffffffffffffffffffffffffffffffffffffff168373ffffffffffffffffffffffffffffffffffffffff16036111b1576040517f08c379a00000000000000000000000000000000000000000000000000000000081526004016111a89061217c565b60405180910390fd5b600073ffffffffffffffffffffffffffffffffffffffff168273ffffffffffffffffffffffffffffffffffffffff1603611220576040517f08c379a00000000000000000000000000000000000000000000000000000000081526004016112179061220e565b60405180910390fd5b61122b8383836118c1565b60008060008573ffffffffffffffffffffffffffffffffffffffff1673ffffffffffffffffffffffffffffffffffffffff168152602001908152602001600020549050818110156112b1576040517f08c379a00000000000000000000000000000000000000000000000000000000081526004016112a8906122a0565b60405180910390fd5b8181036000808673ffffffffffffffffffffffffffffffffffffffff1673ffffffffffffffffffffffffffffffffffffffff16815260200190815260200160002081905550816000808573ffffffffffffffffffffffffffffffffffffffff1673ffffffffffffffffffffffffffffffffffffffff168152602001908152602001600020600082825401925050819055508273ffffffffffffffffffffffffffffffffffffffff168473ffffffffffffffffffffffffffffffffffffffff167fddf252ad1be2c89b69c2b068fc378daa952ba7f163c4a11628f55a4df523b3ef8460405161139f91906119d7565b60405180910390a36113b28484846118c6565b50505050565b60006113c48484610d67565b90507fffffffffffffffffffffffffffffffffffffffffffffffffffffffffffffffff811461143e5781811015611430576040517f08c379a00000000000000000000000000000000000000000000000000000000081526004016114279061230c565b60405180910390fd5b61143d8484848403610f79565b5b50505050565b61144c610f71565b73ffffffffffffffffffffffffffffffffffffffff1661146a610c03565b73ffffffffffffffffffffffffffffffffffffffff16146114c0576040517f08c379a00000000000000000000000000000000000000000000000000000000081526004016114b790612378565b60405180910390fd5b565b600073ffffffffffffffffffffffffffffffffffffffff168273ffffffffffffffffffffffffffffffffffffffff1603611531576040517f08c379a0000000000000000000000000000000000000000000000000000000008152600401611528906123e4565b60405180910390fd5b61153d600083836118c1565b806002600082825461154f9190611904565b92505081905550806000808473ffffffffffffffffffffffffffffffffffffffff1673ffffffffffffffffffffffffffffffffffffffff168152602001908152602001600020600082825401925050819055508173ffffffffffffffffffffffffffffffffffffffff16600073ffffffffffffffffffffffffffffffffffffffff167fddf252ad1be2c89b69c2b068fc378daa952ba7f163c4a11628f55a4df523b3ef8360405161160091906119d7565b60405180910390a3611614600083836118c6565b5050565b600073ffffffffffffffffffffffffffffffffffffffff168273ffffffffffffffffffffffffffffffffffffffff1603611687576040517f08c379a000000000000000000000000000000000000000000000000000000000815260040161167e90612476565b60405180910390fd5b611693826000836118c1565b60008060008473ffffffffffffffffffffffffffffffffffffffff1673ffffffffffffffffffffffffffffffffffffffff16815260200190815260200160002054905081811015611719576040517f08c379a000000000000000000000000000000000000000000000000000000000815260040161171090612508565b60405180910390fd5b8181036000808573ffffffffffffffffffffffffffffffffffffffff1673ffffffffffffffffffffffffffffffffffffffff1681526020019081526020016000208190555081600260008282540392505081905550600073ffffffffffffffffffffffffffffffffffffffff168373ffffffffffffffffffffffffffffffffffffffff167fddf252ad1be2c89b69c2b068fc378daa952ba7f163c4a11628f55a4df523b3ef846040516117cc91906119d7565b60405180910390a36117e0836000846118c6565b505050565b6000600560009054906101000a900473ffffffffffffffffffffffffffffffffffffffff16905081600560006101000a81548173ffffffffffffffffffffffffffffffffffffffff021916908373ffffffffffffffffffffffffffffffffffffffff1602179055508173ffffffffffffffffffffffffffffffffffffffff168173ffffffffffffffffffffffffffffffffffffffff167f8be0079c531659141344cd1fd0a4f28419497f9722a3daafe3b4186f6b6457e060405160405180910390a35050565b600081836118b99190612528565b905092915050565b505050565b505050565b6000819050919050565b7f4e487b7100000000000000000000000000000000000000000000000000000000600052601160045260246000fd5b600061190f826118cb565b915061191a836118cb565b9250828201905080821115611932576119316118d5565b5b92915050565b600080fd5b600073ffffffffffffffffffffffffffffffffffffffff82169050919050565b60006119688261193d565b9050919050565b6119788161195d565b811461198357600080fd5b50565b6000813590506119958161196f565b92915050565b6000602082840312156119b1576119b0611938565b5b60006119bf84828501611986565b91505092915050565b6119d1816118cb565b82525050565b60006020820190506119ec60008301846119c8565b92915050565b600081519050919050565b600082825260208201905092915050565b60005b83811015611a2c578082015181840152602081019050611a11565b60008484015250505050565b6000601f19601f8301169050919050565b6000611a54826119f2565b611a5e81856119fd565b9350611a6e818560208601611a0e565b611a7781611a38565b840191505092915050565b60006020820190508181036000830152611a9c8184611a49565b905092915050565b611aad816118cb565b8114611ab857600080fd5b50565b600081359050611aca81611aa4565b92915050565b60008060408385031215611ae757611ae6611938565b5b6000611af585828601611986565b9250506020611b0685828601611abb565b9150509250929050565b60008115159050919050565b611b2581611b10565b82525050565b6000602082019050611b406000830184611b1c565b92915050565b600080600060608486031215611b5f57611b5e611938565b5b6000611b6d86828701611986565b9350506020611b7e86828701611986565b9250506040611b8f86828701611abb565b9150509250925092565b600060ff82169050919050565b611baf81611b99565b82525050565b6000602082019050611bca6000830184611ba6565b92915050565b600060208284031215611be657611be5611938565b5b6000611bf484828501611abb565b91505092915050565b6000611c088261193d565b9050919050565b611c1881611bfd565b8114611c2357600080fd5b50565b600081359050611c3581611c0f565b92915050565b600060208284031215611c5157611c50611938565b5b6000611c5f84828501611c26565b91505092915050565b611c718161195d565b82525050565b6000602082019050611c8c6000830184611c68565b92915050565b60008060408385031215611ca957611ca8611938565b5b6000611cb785828601611986565b9250506020611cc885828601611986565b9150509250929050565b7f4e487b7100000000000000000000000000000000000000000000000000000000600052602260045260246000fd5b60006002820490506001821680611d1957607f821691505b602082108103611d2c57611d2b611cd2565b5b50919050565b7f5468657265206973206e6f20656e6f7567682066756e6420746f2073656e742060008201527f576f6c664d616e546f6b656e0000000000000000000000000000000000000000602082015250565b6000611d8e602c836119fd565b9150611d9982611d32565b604082019050919050565b60006020820190508181036000830152611dbd81611d81565b9050919050565b7f5f746f2069732030206164647265737300000000000000000000000000000000600082015250565b6000611dfa6010836119fd565b9150611e0582611dc4565b602082019050919050565b60006020820190508181036000830152611e2981611ded565b9050919050565b7f45524332303a2064656372656173656420616c6c6f77616e63652062656c6f7760008201527f207a65726f000000000000000000000000000000000000000000000000000000602082015250565b6000611e8c6025836119fd565b9150611e9782611e30565b604082019050919050565b60006020820190508181036000830152611ebb81611e7f565b9050919050565b7f4f776e61626c653a206e6577206f776e657220697320746865207a65726f206160008201527f6464726573730000000000000000000000000000000000000000000000000000602082015250565b6000611f1e6026836119fd565b9150611f2982611ec2565b604082019050919050565b60006020820190508181036000830152611f4d81611f11565b9050919050565b7f5573657220646f6573206e6f74206861766520656e6f7567682066756e64732060008201527f746f206275792064656d616e64656420746f6b656e7321000000000000000000602082015250565b6000611fb06037836119fd565b9150611fbb82611f54565b604082019050919050565b60006020820190508181036000830152611fdf81611fa3565b9050919050565b7f45524332303a20617070726f76652066726f6d20746865207a65726f2061646460008201527f7265737300000000000000000000000000000000000000000000000000000000602082015250565b60006120426024836119fd565b915061204d82611fe6565b604082019050919050565b6000602082019050818103600083015261207181612035565b9050919050565b7f45524332303a20617070726f766520746f20746865207a65726f20616464726560008201527f7373000000000000000000000000000000000000000000000000000000000000602082015250565b60006120d46022836119fd565b91506120df82612078565b604082019050919050565b60006020820190508181036000830152612103816120c7565b9050919050565b7f45524332303a207472616e736665722066726f6d20746865207a65726f20616460008201527f6472657373000000000000000000000000000000000000000000000000000000602082015250565b60006121666025836119fd565b91506121718261210a565b604082019050919050565b6000602082019050818103600083015261219581612159565b9050919050565b7f45524332303a207472616e7366657220746f20746865207a65726f206164647260008201527f6573730000000000000000000000000000000000000000000000000000000000602082015250565b60006121f86023836119fd565b91506122038261219c565b604082019050919050565b60006020820190508181036000830152612227816121eb565b9050919050565b7f45524332303a207472616e7366657220616d6f756e742065786365656473206260008201527f616c616e63650000000000000000000000000000000000000000000000000000602082015250565b600061228a6026836119fd565b91506122958261222e565b604082019050919050565b600060208201905081810360008301526122b98161227d565b9050919050565b7f45524332303a20696e73756666696369656e7420616c6c6f77616e6365000000600082015250565b60006122f6601d836119fd565b9150612301826122c0565b602082019050919050565b60006020820190508181036000830152612325816122e9565b9050919050565b7f4f776e61626c653a2063616c6c6572206973206e6f7420746865206f776e6572600082015250565b60006123626020836119fd565b915061236d8261232c565b602082019050919050565b6000602082019050818103600083015261239181612355565b9050919050565b7f45524332303a206d696e7420746f20746865207a65726f206164647265737300600082015250565b60006123ce601f836119fd565b91506123d982612398565b602082019050919050565b600060208201905081810360008301526123fd816123c1565b9050919050565b7f45524332303a206275726e2066726f6d20746865207a65726f2061646472657360008201527f7300000000000000000000000000000000000000000000000000000000000000602082015250565b60006124606021836119fd565b915061246b82612404565b604082019050919050565b6000602082019050818103600083015261248f81612453565b9050919050565b7f45524332303a206275726e20616d6f756e7420657863656564732062616c616e60008201527f6365000000000000000000000000000000000000000000000000000000000000602082015250565b60006124f26022836119fd565b91506124fd82612496565b604082019050919050565b60006020820190508181036000830152612521816124e5565b9050919050565b6000612533826118cb565b915061253e836118cb565b925082820261254c816118cb565b91508282048414831517612563576125626118d5565b5b509291505056fea264697066735822122019ee7daeaf5a46f09cbff9e40d20d0d82ec3db26cdc97d6db83e66260caff26864736f6c63430008120033",
  "linkReferences": {},
  "deployedLinkReferences": {}
}