{
  "_format": "hh-sol-artifact-1",
  "contractName": "WolfManToken",
  "sourceName": "contracts/WolfManToken.sol",
  "abi": [
    {
      "inputs": [],
      "stateMutability": "nonpayable",
      "type": "constructor"
    },
    {
      "inputs": [],
      "name": "UserIsNotVictim",
      "type": "error"
    },
    {
      "anonymous": false,
      "inputs": [
        {
          "indexed": true,
          "internalType": "address",
          "name": "owner",
          "type": "address"
        },
        {
          "indexed": true,
          "internalType": "address",
          "name": "spender",
          "type": "address"
        },
        {
          "indexed": false,
          "internalType": "uint256",
          "name": "value",
          "type": "uint256"
        }
      ],
      "name": "Approval",
      "type": "event"
    },
    {
      "anonymous": false,
      "inputs": [
        {
          "indexed": true,
          "internalType": "address",
          "name": "previousOwner",
          "type": "address"
        },
        {
          "indexed": true,
          "internalType": "address",
          "name": "newOwner",
          "type": "address"
        }
      ],
      "name": "OwnershipTransferred",
      "type": "event"
    },
    {
      "anonymous": false,
      "inputs": [
        {
          "indexed": true,
          "internalType": "address",
          "name": "from",
          "type": "address"
        },
        {
          "indexed": true,
          "internalType": "address",
          "name": "to",
          "type": "address"
        },
        {
          "indexed": false,
          "internalType": "uint256",
          "name": "value",
          "type": "uint256"
        }
      ],
      "name": "Transfer",
      "type": "event"
    },
    {
      "anonymous": false,
      "inputs": [
        {
          "indexed": true,
          "internalType": "address",
          "name": "buyer",
          "type": "address"
        },
        {
          "indexed": false,
          "internalType": "uint256",
          "name": "amount",
          "type": "uint256"
        }
      ],
      "name": "newTokenBought",
      "type": "event"
    },
    {
      "stateMutability": "payable",
      "type": "fallback"
    },
    {
      "inputs": [
        {
          "internalType": "address",
          "name": "owner",
          "type": "address"
        },
        {
          "internalType": "address",
          "name": "spender",
          "type": "address"
        }
      ],
      "name": "allowance",
      "outputs": [
        {
          "internalType": "uint256",
          "name": "",
          "type": "uint256"
        }
      ],
      "stateMutability": "view",
      "type": "function"
    },
    {
      "inputs": [
        {
          "internalType": "address",
          "name": "spender",
          "type": "address"
        },
        {
          "internalType": "uint256",
          "name": "amount",
          "type": "uint256"
        }
      ],
      "name": "approve",
      "outputs": [
        {
          "internalType": "bool",
          "name": "",
          "type": "bool"
        }
      ],
      "stateMutability": "nonpayable",
      "type": "function"
    },
    {
      "inputs": [
        {
          "internalType": "address",
          "name": "account",
          "type": "address"
        }
      ],
      "name": "balanceOf",
      "outputs": [
        {
          "internalType": "uint256",
          "name": "",
          "type": "uint256"
        }
      ],
      "stateMutability": "view",
      "type": "function"
    },
    {
      "inputs": [
        {
          "internalType": "uint256",
          "name": "amount",
          "type": "uint256"
        }
      ],
      "name": "burn",
      "outputs": [],
      "stateMutability": "nonpayable",
      "type": "function"
    },
    {
      "inputs": [
        {
          "internalType": "address",
          "name": "account",
          "type": "address"
        },
        {
          "internalType": "uint256",
          "name": "amount",
          "type": "uint256"
        }
      ],
      "name": "burnFrom",
      "outputs": [],
      "stateMutability": "nonpayable",
      "type": "function"
    },
    {
      "inputs": [
        {
          "internalType": "uint256",
          "name": "_amount",
          "type": "uint256"
        }
      ],
      "name": "buyWolfManToken",
      "outputs": [],
      "stateMutability": "payable",
      "type": "function"
    },
    {
      "inputs": [],
      "name": "decimals",
      "outputs": [
        {
          "internalType": "uint8",
          "name": "",
          "type": "uint8"
        }
      ],
      "stateMutability": "view",
      "type": "function"
    },
    {
      "inputs": [
        {
          "internalType": "address",
          "name": "spender",
          "type": "address"
        },
        {
          "internalType": "uint256",
          "name": "subtractedValue",
          "type": "uint256"
        }
      ],
      "name": "decreaseAllowance",
      "outputs": [
        {
          "internalType": "bool",
          "name": "",
          "type": "bool"
        }
      ],
      "stateMutability": "nonpayable",
      "type": "function"
    },
    {
      "inputs": [
        {
          "internalType": "address",
          "name": "spender",
          "type": "address"
        },
        {
          "internalType": "uint256",
          "name": "addedValue",
          "type": "uint256"
        }
      ],
      "name": "increaseAllowance",
      "outputs": [
        {
          "internalType": "bool",
          "name": "",
          "type": "bool"
        }
      ],
      "stateMutability": "nonpayable",
      "type": "function"
    },
    {
      "inputs": [
        {
          "internalType": "address",
          "name": "to",
          "type": "address"
        },
        {
          "internalType": "uint256",
          "name": "amount",
          "type": "uint256"
        }
      ],
      "name": "mint",
      "outputs": [],
      "stateMutability": "nonpayable",
      "type": "function"
    },
    {
      "inputs": [],
      "name": "name",
      "outputs": [
        {
          "internalType": "string",
          "name": "",
          "type": "string"
        }
      ],
      "stateMutability": "view",
      "type": "function"
    },
    {
      "inputs": [],
      "name": "owner",
      "outputs": [
        {
          "internalType": "address",
          "name": "",
          "type": "address"
        }
      ],
      "stateMutability": "view",
      "type": "function"
    },
    {
      "inputs": [],
      "name": "price",
      "outputs": [
        {
          "internalType": "uint256",
          "name": "",
          "type": "uint256"
        }
      ],
      "stateMutability": "view",
      "type": "function"
    },
    {
      "inputs": [],
      "name": "refund",
      "outputs": [],
      "stateMutability": "nonpayable",
      "type": "function"
    },
    {
      "inputs": [],
      "name": "renounceOwnership",
      "outputs": [],
      "stateMutability": "nonpayable",
      "type": "function"
    },
    {
      "inputs": [
        {
          "internalType": "address",
          "name": "_to",
          "type": "address"
        },
        {
          "internalType": "uint256",
          "name": "_amount",
          "type": "uint256"
        }
      ],
      "name": "sendWolfManToken",
      "outputs": [],
      "stateMutability": "nonpayable",
      "type": "function"
    },
    {
      "inputs": [],
      "name": "symbol",
      "outputs": [
        {
          "internalType": "string",
          "name": "",
          "type": "string"
        }
      ],
      "stateMutability": "view",
      "type": "function"
    },
    {
      "inputs": [],
      "name": "totalDepositedEther",
      "outputs": [
        {
          "internalType": "uint256",
          "name": "",
          "type": "uint256"
        }
      ],
      "stateMutability": "view",
      "type": "function"
    },
    {
      "inputs": [],
      "name": "totalSupply",
      "outputs": [
        {
          "internalType": "uint256",
          "name": "",
          "type": "uint256"
        }
      ],
      "stateMutability": "view",
      "type": "function"
    },
    {
      "inputs": [
        {
          "internalType": "address",
          "name": "to",
          "type": "address"
        },
        {
          "internalType": "uint256",
          "name": "amount",
          "type": "uint256"
        }
      ],
      "name": "transfer",
      "outputs": [
        {
          "internalType": "bool",
          "name": "",
          "type": "bool"
        }
      ],
      "stateMutability": "nonpayable",
      "type": "function"
    },
    {
      "inputs": [
        {
          "internalType": "address",
          "name": "from",
          "type": "address"
        },
        {
          "internalType": "address",
          "name": "to",
          "type": "address"
        },
        {
          "internalType": "uint256",
          "name": "amount",
          "type": "uint256"
        }
      ],
      "name": "transferFrom",
      "outputs": [
        {
          "internalType": "bool",
          "name": "",
          "type": "bool"
        }
      ],
      "stateMutability": "nonpayable",
      "type": "function"
    },
    {
      "inputs": [
        {
          "internalType": "address",
          "name": "newOwner",
          "type": "address"
        }
      ],
      "name": "transferOwnership",
      "outputs": [],
      "stateMutability": "nonpayable",
      "type": "function"
    },
    {
      "inputs": [
        {
          "internalType": "address payable",
          "name": "_to",
          "type": "address"
        }
      ],
      "name": "withdrawFunds",
      "outputs": [],
      "stateMutability": "nonpayable",
      "type": "function"
    },
    {
      "stateMutability": "payable",
      "type": "receive"
    }
  ],
  "bytecode": "0x608060405266038d7ea4c680006006553480156200001c57600080fd5b506040518060400160405280600c81526020017f576f6c664d616e546f6b656e00000000000000000000000000000000000000008152506040518060400160405280600781526020017f574f4c464d616e0000000000000000000000000000000000000000000000000081525081600390816200009a9190620005c9565b508060049081620000ac9190620005c9565b505050620000cf620000c36200010160201b60201c565b6200010960201b60201c565b620000fb33620000e4620001cf60201b60201c565b60ff16600a0a6298968002620001d860201b60201c565b620007cb565b600033905090565b6000600560009054906101000a900473ffffffffffffffffffffffffffffffffffffffff16905081600560006101000a81548173ffffffffffffffffffffffffffffffffffffffff021916908373ffffffffffffffffffffffffffffffffffffffff1602179055508173ffffffffffffffffffffffffffffffffffffffff168173ffffffffffffffffffffffffffffffffffffffff167f8be0079c531659141344cd1fd0a4f28419497f9722a3daafe3b4186f6b6457e060405160405180910390a35050565b60006012905090565b600073ffffffffffffffffffffffffffffffffffffffff168273ffffffffffffffffffffffffffffffffffffffff16036200024a576040517f08c379a0000000000000000000000000000000000000000000000000000000008152600401620002419062000711565b60405180910390fd5b6200025e600083836200034560201b60201c565b806002600082825462000272919062000762565b92505081905550806000808473ffffffffffffffffffffffffffffffffffffffff1673ffffffffffffffffffffffffffffffffffffffff168152602001908152602001600020600082825401925050819055508173ffffffffffffffffffffffffffffffffffffffff16600073ffffffffffffffffffffffffffffffffffffffff167fddf252ad1be2c89b69c2b068fc378daa952ba7f163c4a11628f55a4df523b3ef83604051620003259190620007ae565b60405180910390a362000341600083836200034a60201b60201c565b5050565b505050565b505050565b600081519050919050565b7f4e487b7100000000000000000000000000000000000000000000000000000000600052604160045260246000fd5b7f4e487b7100000000000000000000000000000000000000000000000000000000600052602260045260246000fd5b60006002820490506001821680620003d157607f821691505b602082108103620003e757620003e662000389565b5b50919050565b60008190508160005260206000209050919050565b60006020601f8301049050919050565b600082821b905092915050565b600060088302620004517fffffffffffffffffffffffffffffffffffffffffffffffffffffffffffffffff8262000412565b6200045d868362000412565b95508019841693508086168417925050509392505050565b6000819050919050565b6000819050919050565b6000620004aa620004a46200049e8462000475565b6200047f565b62000475565b9050919050565b6000819050919050565b620004c68362000489565b620004de620004d582620004b1565b8484546200041f565b825550505050565b600090565b620004f5620004e6565b62000502818484620004bb565b505050565b5b818110156200052a576200051e600082620004eb565b60018101905062000508565b5050565b601f82111562000579576200054381620003ed565b6200054e8462000402565b810160208510156200055e578190505b620005766200056d8562000402565b83018262000507565b50505b505050565b600082821c905092915050565b60006200059e600019846008026200057e565b1980831691505092915050565b6000620005b983836200058b565b9150826002028217905092915050565b620005d4826200034f565b67ffffffffffffffff811115620005f057620005ef6200035a565b5b620005fc8254620003b8565b620006098282856200052e565b600060209050601f8311600181146200064157600084156200062c578287015190505b620006388582620005ab565b865550620006a8565b601f1984166200065186620003ed565b60005b828110156200067b5784890151825560018201915060208501945060208101905062000654565b868310156200069b578489015162000697601f8916826200058b565b8355505b6001600288020188555050505b505050505050565b600082825260208201905092915050565b7f45524332303a206d696e7420746f20746865207a65726f206164647265737300600082015250565b6000620006f9601f83620006b0565b91506200070682620006c1565b602082019050919050565b600060208201905081810360008301526200072c81620006ea565b9050919050565b7f4e487b7100000000000000000000000000000000000000000000000000000000600052601160045260246000fd5b60006200076f8262000475565b91506200077c8362000475565b925082820190508082111562000797576200079662000733565b5b92915050565b620007a88162000475565b82525050565b6000602082019050620007c560008301846200079d565b92915050565b61258980620007db6000396000f3fe6080604052600436106101445760003560e01c806370a08231116100b6578063a035b1fe1161006f578063a035b1fe14610598578063a457c2d7146105c3578063a9059cbb14610600578063dd62ed3e1461063d578063f2fde38b1461067a578063f95ed3e6146106a3576101f8565b806370a082311461049a578063715018a6146104d757806379cc6790146104ee5780638da5cb5b1461051757806395d89b41146105425780639b4d51f41461056d576101f8565b8063313ce56711610108578063313ce567146103a057806339509351146103cb57806340c10f191461040857806342966c6814610431578063590e1ae31461045a57806368742da614610471576101f8565b806306fdde03146102a7578063095ea7b3146102d257806318160ddd1461030f5780631fb355cd1461033a57806323b872dd14610363576101f8565b366101f85734600760003373ffffffffffffffffffffffffffffffffffffffff1673ffffffffffffffffffffffffffffffffffffffff1681526020019081526020016000206000828254610198919061188d565b925050819055506000600860003373ffffffffffffffffffffffffffffffffffffffff1673ffffffffffffffffffffffffffffffffffffffff16815260200190815260200160002060006101000a81548160ff0219169083151502179055005b34600760003373ffffffffffffffffffffffffffffffffffffffff1673ffffffffffffffffffffffffffffffffffffffff1681526020019081526020016000206000828254610247919061188d565b925050819055506000600860003373ffffffffffffffffffffffffffffffffffffffff1673ffffffffffffffffffffffffffffffffffffffff16815260200190815260200160002060006101000a81548160ff0219169083151502179055005b3480156102b357600080fd5b506102bc6106bf565b6040516102c99190611951565b60405180910390f35b3480156102de57600080fd5b506102f960048036038101906102f49190611a02565b610751565b6040516103069190611a5d565b60405180910390f35b34801561031b57600080fd5b50610324610774565b6040516103319190611a87565b60405180910390f35b34801561034657600080fd5b50610361600480360381019061035c9190611a02565b61077e565b005b34801561036f57600080fd5b5061038a60048036038101906103859190611aa2565b6107e3565b6040516103979190611a5d565b60405180910390f35b3480156103ac57600080fd5b506103b5610812565b6040516103c29190611b11565b60405180910390f35b3480156103d757600080fd5b506103f260048036038101906103ed9190611a02565b61081b565b6040516103ff9190611a5d565b60405180910390f35b34801561041457600080fd5b5061042f600480360381019061042a9190611a02565b610852565b005b34801561043d57600080fd5b5061045860048036038101906104539190611b2c565b610868565b005b34801561046657600080fd5b5061046f61087c565b005b34801561047d57600080fd5b5061049860048036038101906104939190611b97565b61095b565b005b3480156104a657600080fd5b506104c160048036038101906104bc9190611bc4565b610a1c565b6040516104ce9190611a87565b60405180910390f35b3480156104e357600080fd5b506104ec610a64565b005b3480156104fa57600080fd5b5061051560048036038101906105109190611a02565b610a78565b005b34801561052357600080fd5b5061052c610a98565b6040516105399190611c00565b60405180910390f35b34801561054e57600080fd5b50610557610ac2565b6040516105649190611951565b60405180910390f35b34801561057957600080fd5b50610582610b54565b60405161058f9190611a87565b60405180910390f35b3480156105a457600080fd5b506105ad610b5c565b6040516105ba9190611a87565b60405180910390f35b3480156105cf57600080fd5b506105ea60048036038101906105e59190611a02565b610b62565b6040516105f79190611a5d565b60405180910390f35b34801561060c57600080fd5b5061062760048036038101906106229190611a02565b610bd9565b6040516106349190611a5d565b60405180910390f35b34801561064957600080fd5b50610664600480360381019061065f9190611c1b565b610bfc565b6040516106719190611a87565b60405180910390f35b34801561068657600080fd5b506106a1600480360381019061069c9190611bc4565b610c83565b005b6106bd60048036038101906106b89190611b2c565b610d06565b005b6060600380546106ce90611c8a565b80601f01602080910402602001604051908101604052809291908181526020018280546106fa90611c8a565b80156107475780601f1061071c57610100808354040283529160200191610747565b820191906000526020600020905b81548152906001019060200180831161072a57829003601f168201915b5050505050905090565b60008061075c610e06565b9050610769818585610e0e565b600191505092915050565b6000600254905090565b8061078833610a1c565b10156107c9576040517f08c379a00000000000000000000000000000000000000000000000000000000081526004016107c090611d2d565b60405180910390fd5b6107d4823383610e0e565b6107df338383610fd7565b5050565b6000806107ee610e06565b90506107fb85828561124d565b610806858585610fd7565b60019150509392505050565b60006012905090565b600080610826610e06565b90506108478185856108388589610bfc565b610842919061188d565b610e0e565b600191505092915050565b61085a6112d9565b6108648282611357565b5050565b610879610873610e06565b826114ad565b50565b61088461167a565b6001600860003373ffffffffffffffffffffffffffffffffffffffff1673ffffffffffffffffffffffffffffffffffffffff16815260200190815260200160002060006101000a81548160ff0219169083151502179055506000610932600654600760003373ffffffffffffffffffffffffffffffffffffffff1673ffffffffffffffffffffffffffffffffffffffff1681526020019081526020016000205461175890919063ffffffff16565b905061094633610940610a98565b83610e0e565b610958610951610a98565b3383610fd7565b50565b6109636112d9565b600073ffffffffffffffffffffffffffffffffffffffff168173ffffffffffffffffffffffffffffffffffffffff16036109d2576040517f08c379a00000000000000000000000000000000000000000000000000000000081526004016109c990611d99565b60405180910390fd5b8073ffffffffffffffffffffffffffffffffffffffff166108fc479081150290604051600060405180830381858888f19350505050158015610a18573d6000803e3d6000fd5b5050565b60008060008373ffffffffffffffffffffffffffffffffffffffff1673ffffffffffffffffffffffffffffffffffffffff168152602001908152602001600020549050919050565b610a6c6112d9565b610a76600061176e565b565b610a8a82610a84610e06565b8361124d565b610a9482826114ad565b5050565b6000600560009054906101000a900473ffffffffffffffffffffffffffffffffffffffff16905090565b606060048054610ad190611c8a565b80601f0160208091040260200160405190810160405280929190818152602001828054610afd90611c8a565b8015610b4a5780601f10610b1f57610100808354040283529160200191610b4a565b820191906000526020600020905b815481529060010190602001808311610b2d57829003601f168201915b5050505050905090565b600047905090565b60065481565b600080610b6d610e06565b90506000610b7b8286610bfc565b905083811015610bc0576040517f08c379a0000000000000000000000000000000000000000000000000000000008152600401610bb790611e2b565b60405180910390fd5b610bcd8286868403610e0e565b60019250505092915050565b600080610be4610e06565b9050610bf1818585610fd7565b600191505092915050565b6000600160008473ffffffffffffffffffffffffffffffffffffffff1673ffffffffffffffffffffffffffffffffffffffff16815260200190815260200160002060008373ffffffffffffffffffffffffffffffffffffffff1673ffffffffffffffffffffffffffffffffffffffff16815260200190815260200160002054905092915050565b610c8b6112d9565b600073ffffffffffffffffffffffffffffffffffffffff168173ffffffffffffffffffffffffffffffffffffffff1603610cfa576040517f08c379a0000000000000000000000000000000000000000000000000000000008152600401610cf190611ebd565b60405180910390fd5b610d038161176e565b50565b610d1b6006548261183490919063ffffffff16565b341015610d5d576040517f08c379a0000000000000000000000000000000000000000000000000000000008152600401610d5490611f4f565b60405180910390fd5b610d8933610d69610a98565b610d84670de0b6b3a76400008561183490919063ffffffff16565b610e0e565b610db5610d94610a98565b33610db0670de0b6b3a76400008561183490919063ffffffff16565b610fd7565b3373ffffffffffffffffffffffffffffffffffffffff167f340e25f582359f328c453eea9c8325fd1842595ec78f46a5717fa08336a69b3b82604051610dfb9190611a87565b60405180910390a250565b600033905090565b600073ffffffffffffffffffffffffffffffffffffffff168373ffffffffffffffffffffffffffffffffffffffff1603610e7d576040517f08c379a0000000000000000000000000000000000000000000000000000000008152600401610e7490611fe1565b60405180910390fd5b600073ffffffffffffffffffffffffffffffffffffffff168273ffffffffffffffffffffffffffffffffffffffff1603610eec576040517f08c379a0000000000000000000000000000000000000000000000000000000008152600401610ee390612073565b60405180910390fd5b80600160008573ffffffffffffffffffffffffffffffffffffffff1673ffffffffffffffffffffffffffffffffffffffff16815260200190815260200160002060008473ffffffffffffffffffffffffffffffffffffffff1673ffffffffffffffffffffffffffffffffffffffff168152602001908152602001600020819055508173ffffffffffffffffffffffffffffffffffffffff168373ffffffffffffffffffffffffffffffffffffffff167f8c5be1e5ebec7d5bd14f71427d1e84f3dd0314c0f7b2291e5b200ac8c7c3b92583604051610fca9190611a87565b60405180910390a3505050565b600073ffffffffffffffffffffffffffffffffffffffff168373ffffffffffffffffffffffffffffffffffffffff1603611046576040517f08c379a000000000000000000000000000000000000000000000000000000000815260040161103d90612105565b60405180910390fd5b600073ffffffffffffffffffffffffffffffffffffffff168273ffffffffffffffffffffffffffffffffffffffff16036110b5576040517f08c379a00000000000000000000000000000000000000000000000000000000081526004016110ac90612197565b60405180910390fd5b6110c083838361184a565b60008060008573ffffffffffffffffffffffffffffffffffffffff1673ffffffffffffffffffffffffffffffffffffffff16815260200190815260200160002054905081811015611146576040517f08c379a000000000000000000000000000000000000000000000000000000000815260040161113d90612229565b60405180910390fd5b8181036000808673ffffffffffffffffffffffffffffffffffffffff1673ffffffffffffffffffffffffffffffffffffffff16815260200190815260200160002081905550816000808573ffffffffffffffffffffffffffffffffffffffff1673ffffffffffffffffffffffffffffffffffffffff168152602001908152602001600020600082825401925050819055508273ffffffffffffffffffffffffffffffffffffffff168473ffffffffffffffffffffffffffffffffffffffff167fddf252ad1be2c89b69c2b068fc378daa952ba7f163c4a11628f55a4df523b3ef846040516112349190611a87565b60405180910390a361124784848461184f565b50505050565b60006112598484610bfc565b90507fffffffffffffffffffffffffffffffffffffffffffffffffffffffffffffffff81146112d357818110156112c5576040517f08c379a00000000000000000000000000000000000000000000000000000000081526004016112bc90612295565b60405180910390fd5b6112d28484848403610e0e565b5b50505050565b6112e1610e06565b73ffffffffffffffffffffffffffffffffffffffff166112ff610a98565b73ffffffffffffffffffffffffffffffffffffffff1614611355576040517f08c379a000000000000000000000000000000000000000000000000000000000815260040161134c90612301565b60405180910390fd5b565b600073ffffffffffffffffffffffffffffffffffffffff168273ffffffffffffffffffffffffffffffffffffffff16036113c6576040517f08c379a00000000000000000000000000000000000000000000000000000000081526004016113bd9061236d565b60405180910390fd5b6113d26000838361184a565b80600260008282546113e4919061188d565b92505081905550806000808473ffffffffffffffffffffffffffffffffffffffff1673ffffffffffffffffffffffffffffffffffffffff168152602001908152602001600020600082825401925050819055508173ffffffffffffffffffffffffffffffffffffffff16600073ffffffffffffffffffffffffffffffffffffffff167fddf252ad1be2c89b69c2b068fc378daa952ba7f163c4a11628f55a4df523b3ef836040516114959190611a87565b60405180910390a36114a96000838361184f565b5050565b600073ffffffffffffffffffffffffffffffffffffffff168273ffffffffffffffffffffffffffffffffffffffff160361151c576040517f08c379a0000000000000000000000000000000000000000000000000000000008152600401611513906123ff565b60405180910390fd5b6115288260008361184a565b60008060008473ffffffffffffffffffffffffffffffffffffffff1673ffffffffffffffffffffffffffffffffffffffff168152602001908152602001600020549050818110156115ae576040517f08c379a00000000000000000000000000000000000000000000000000000000081526004016115a590612491565b60405180910390fd5b8181036000808573ffffffffffffffffffffffffffffffffffffffff1673ffffffffffffffffffffffffffffffffffffffff1681526020019081526020016000208190555081600260008282540392505081905550600073ffffffffffffffffffffffffffffffffffffffff168373ffffffffffffffffffffffffffffffffffffffff167fddf252ad1be2c89b69c2b068fc378daa952ba7f163c4a11628f55a4df523b3ef846040516116619190611a87565b60405180910390a36116758360008461184f565b505050565b670de0b6b3a7640000600760003373ffffffffffffffffffffffffffffffffffffffff1673ffffffffffffffffffffffffffffffffffffffff16815260200190815260200160002054108061171f575060011515600860003373ffffffffffffffffffffffffffffffffffffffff1673ffffffffffffffffffffffffffffffffffffffff16815260200190815260200160002060009054906101000a900460ff161515145b15611756576040517f7246eb9d00000000000000000000000000000000000000000000000000000000815260040160405180910390fd5b565b6000818361176691906124e0565b905092915050565b6000600560009054906101000a900473ffffffffffffffffffffffffffffffffffffffff16905081600560006101000a81548173ffffffffffffffffffffffffffffffffffffffff021916908373ffffffffffffffffffffffffffffffffffffffff1602179055508173ffffffffffffffffffffffffffffffffffffffff168173ffffffffffffffffffffffffffffffffffffffff167f8be0079c531659141344cd1fd0a4f28419497f9722a3daafe3b4186f6b6457e060405160405180910390a35050565b600081836118429190612511565b905092915050565b505050565b505050565b6000819050919050565b7f4e487b7100000000000000000000000000000000000000000000000000000000600052601160045260246000fd5b600061189882611854565b91506118a383611854565b92508282019050808211156118bb576118ba61185e565b5b92915050565b600081519050919050565b600082825260208201905092915050565b60005b838110156118fb5780820151818401526020810190506118e0565b60008484015250505050565b6000601f19601f8301169050919050565b6000611923826118c1565b61192d81856118cc565b935061193d8185602086016118dd565b61194681611907565b840191505092915050565b6000602082019050818103600083015261196b8184611918565b905092915050565b600080fd5b600073ffffffffffffffffffffffffffffffffffffffff82169050919050565b60006119a382611978565b9050919050565b6119b381611998565b81146119be57600080fd5b50565b6000813590506119d0816119aa565b92915050565b6119df81611854565b81146119ea57600080fd5b50565b6000813590506119fc816119d6565b92915050565b60008060408385031215611a1957611a18611973565b5b6000611a27858286016119c1565b9250506020611a38858286016119ed565b9150509250929050565b60008115159050919050565b611a5781611a42565b82525050565b6000602082019050611a726000830184611a4e565b92915050565b611a8181611854565b82525050565b6000602082019050611a9c6000830184611a78565b92915050565b600080600060608486031215611abb57611aba611973565b5b6000611ac9868287016119c1565b9350506020611ada868287016119c1565b9250506040611aeb868287016119ed565b9150509250925092565b600060ff82169050919050565b611b0b81611af5565b82525050565b6000602082019050611b266000830184611b02565b92915050565b600060208284031215611b4257611b41611973565b5b6000611b50848285016119ed565b91505092915050565b6000611b6482611978565b9050919050565b611b7481611b59565b8114611b7f57600080fd5b50565b600081359050611b9181611b6b565b92915050565b600060208284031215611bad57611bac611973565b5b6000611bbb84828501611b82565b91505092915050565b600060208284031215611bda57611bd9611973565b5b6000611be8848285016119c1565b91505092915050565b611bfa81611998565b82525050565b6000602082019050611c156000830184611bf1565b92915050565b60008060408385031215611c3257611c31611973565b5b6000611c40858286016119c1565b9250506020611c51858286016119c1565b9150509250929050565b7f4e487b7100000000000000000000000000000000000000000000000000000000600052602260045260246000fd5b60006002820490506001821680611ca257607f821691505b602082108103611cb557611cb4611c5b565b5b50919050565b7f5468657265206973206e6f20656e6f7567682066756e6420746f2073656e742060008201527f576f6c664d616e546f6b656e0000000000000000000000000000000000000000602082015250565b6000611d17602c836118cc565b9150611d2282611cbb565b604082019050919050565b60006020820190508181036000830152611d4681611d0a565b9050919050565b7f5f746f2069732030206164647265737300000000000000000000000000000000600082015250565b6000611d836010836118cc565b9150611d8e82611d4d565b602082019050919050565b60006020820190508181036000830152611db281611d76565b9050919050565b7f45524332303a2064656372656173656420616c6c6f77616e63652062656c6f7760008201527f207a65726f000000000000000000000000000000000000000000000000000000602082015250565b6000611e156025836118cc565b9150611e2082611db9565b604082019050919050565b60006020820190508181036000830152611e4481611e08565b9050919050565b7f4f776e61626c653a206e6577206f776e657220697320746865207a65726f206160008201527f6464726573730000000000000000000000000000000000000000000000000000602082015250565b6000611ea76026836118cc565b9150611eb282611e4b565b604082019050919050565b60006020820190508181036000830152611ed681611e9a565b9050919050565b7f5573657220646f6573206e6f74206861766520656e6f7567682066756e64732060008201527f746f206275792064656d616e64656420746f6b656e7321000000000000000000602082015250565b6000611f396037836118cc565b9150611f4482611edd565b604082019050919050565b60006020820190508181036000830152611f6881611f2c565b9050919050565b7f45524332303a20617070726f76652066726f6d20746865207a65726f2061646460008201527f7265737300000000000000000000000000000000000000000000000000000000602082015250565b6000611fcb6024836118cc565b9150611fd682611f6f565b604082019050919050565b60006020820190508181036000830152611ffa81611fbe565b9050919050565b7f45524332303a20617070726f766520746f20746865207a65726f20616464726560008201527f7373000000000000000000000000000000000000000000000000000000000000602082015250565b600061205d6022836118cc565b915061206882612001565b604082019050919050565b6000602082019050818103600083015261208c81612050565b9050919050565b7f45524332303a207472616e736665722066726f6d20746865207a65726f20616460008201527f6472657373000000000000000000000000000000000000000000000000000000602082015250565b60006120ef6025836118cc565b91506120fa82612093565b604082019050919050565b6000602082019050818103600083015261211e816120e2565b9050919050565b7f45524332303a207472616e7366657220746f20746865207a65726f206164647260008201527f6573730000000000000000000000000000000000000000000000000000000000602082015250565b60006121816023836118cc565b915061218c82612125565b604082019050919050565b600060208201905081810360008301526121b081612174565b9050919050565b7f45524332303a207472616e7366657220616d6f756e742065786365656473206260008201527f616c616e63650000000000000000000000000000000000000000000000000000602082015250565b60006122136026836118cc565b915061221e826121b7565b604082019050919050565b6000602082019050818103600083015261224281612206565b9050919050565b7f45524332303a20696e73756666696369656e7420616c6c6f77616e6365000000600082015250565b600061227f601d836118cc565b915061228a82612249565b602082019050919050565b600060208201905081810360008301526122ae81612272565b9050919050565b7f4f776e61626c653a2063616c6c6572206973206e6f7420746865206f776e6572600082015250565b60006122eb6020836118cc565b91506122f6826122b5565b602082019050919050565b6000602082019050818103600083015261231a816122de565b9050919050565b7f45524332303a206d696e7420746f20746865207a65726f206164647265737300600082015250565b6000612357601f836118cc565b915061236282612321565b602082019050919050565b600060208201905081810360008301526123868161234a565b9050919050565b7f45524332303a206275726e2066726f6d20746865207a65726f2061646472657360008201527f7300000000000000000000000000000000000000000000000000000000000000602082015250565b60006123e96021836118cc565b91506123f48261238d565b604082019050919050565b60006020820190508181036000830152612418816123dc565b9050919050565b7f45524332303a206275726e20616d6f756e7420657863656564732062616c616e60008201527f6365000000000000000000000000000000000000000000000000000000000000602082015250565b600061247b6022836118cc565b91506124868261241f565b604082019050919050565b600060208201905081810360008301526124aa8161246e565b9050919050565b7f4e487b7100000000000000000000000000000000000000000000000000000000600052601260045260246000fd5b60006124eb82611854565b91506124f683611854565b925082612506576125056124b1565b5b828204905092915050565b600061251c82611854565b915061252783611854565b925082820261253581611854565b9150828204841483151761254c5761254b61185e565b5b509291505056fea264697066735822122005983e5bec0c76feb8df58d9978605ec4d728991b38ef6479161a02f044fe0a264736f6c63430008120033",
  "linkReferences": {},
  "deployedLinkReferences": {}
}